S0140000747261666669634C696768742E7372656339
S11300000C942A000C94C8010C943C000C943C0001
S11300100C943C000C943C000C943C000C943C006C
S11300200C943C000C943C000C943C000C943C005C
S11300300C943C000C943C000C943C000C943C004C
S11300400C943C000C943C000C943C000C943C003C
S11300500C943C0011241FBECFE5D8E0DEBFCDBF19
S113006020E0A0E6B0E001C01D92A336B207E1F79C
S11300700E94E4010C947C050C9400001092620030
S113008081E0809361008093600062E081E40E94DB
S1130090D80161E081E40E94D80160E081E40E941B
S11300A0D80162E082E40E94D80161E082E40E9407
S11300B0D80160E082E40E94D80162E084E40E94F6
S11300C0D4010E94DD02789485B7836085BF8BB725
S11300D080648BBF0895CF9380916000811107C025
S11300E090916200992319F0913009F0F7C08111C1
S11300F003C091E09093620090916200913081F18D
S113010020F0923009F4B7C0E2C062E081E40E94BA
S1130110DC0161E081E40E94E00160E081E40E948E
S1130120E00160E082E40E94DC0162E082E40E947B
S1130130E00161E082E40E94E001C0E009C082E6DF
S113014090E00E94DF0280916000882319F0CF5F65
S1130150C233A8F381E0809362001092610016C15B
S113016081116AC080916100823069F160E082E4AB
S11301700E94DC01C0E025C061E081E40E94DC0152
S113018061E082E40E94DC018BE391E00E94DF02E3
S113019061E081E40E94E00161E082E40E94E00108
S11301A08BE391E00E94DF0261E081E40E94DC01C4
S11301B061E082E40E94DC018BE391E00E94DF02B3
S11301C0CF5FC530C8F281E08093610082E0809304
S11301D0620060E081E40E94DC0131C061E081E4FE
S11301E00E94DC0161E082E40E94DC018BE391E087
S11301F00E94DF0261E081E40E94E00161E082E4A8
S11302000E94E0018BE391E00E94DF0261E081E45F
S11302100E94DC0161E082E40E94DC018BE391E056
S11302200E94DF0280916000811104C081E080930C
S1130230610005C0CF5F01C0C0E0C53078F261E065
S113024081E40E94E00161E082E40E94E001809187
S11302506100811107C082E08093620081E0809395
S1130260610094C0823009F091C01092620081E074
S1130270809361008BC062E081E40E94E00161E050
S113028081E40E94E00160E081E40E94DC0160E01E
S113029082E40E94E00161E082E40E94E00162E005
S11302A082E40E94DC01C0E009C082E690E00E9482
S11302B0DF0280916000882319F0CF5FC233A8F376
S11302C082E08093610081E0809362005FC082E0FD
S11302D08093620081E08093610058C062E081E411
S11302E00E94E00161E081E40E94E00160E081E4B9
S11302F00E94DC0161E082E40E94E00160E082E4AB
S11303000E94E00162E082E40E94DC0188E893E15B
S11303100E94DF02C0E025C061E081E40E94DC01AC
S113032061E082E40E94DC018BE391E00E94DF0241
S113033061E081E40E94E00161E082E40E94E00166
S11303408BE391E00E94DF0261E081E40E94DC0122
S113035061E082E40E94DC018BE391E00E94DF0211
S1130360CF5FC530C8F261E081E40E94E00161E042
S113037082E40E94E00160E082E40E94DC0181E00A
S1130380809360001092620080936100CF91089581
S11303901F920F920FB60F921124109260000F90CB
S11303A00FBE0F901F90189540E00E94E901089538
S11303B041E00E94E901089541E00E94630208952A
S11303C040E00E94630208950E943E000E946B0078
S11303D0FDCF823431F118F4813439F00895833437
S11303E0E1F1843409F454C0089541110CC02AB3D6
S11303F081E090E002C0880F991F6A95E2F780952A
S113040082238ABB0895413009F05CC02AB381E09D
S113041090E002C0880F991F6A95E2F7822B8ABB8D
S1130420089541110CC027B381E090E002C0880F09
S1130430991F6A95E2F78095822387BB089541301E
S113044009F040C027B381E090E002C0880F991FF3
S11304506A95E2F7822B87BB089541110CC024B33F
S113046081E090E002C0880F991F6A95E2F78095B9
S1130470822384BB0895413029F524B381E090E0C0
S113048002C0880F991F6A95E2F7822B84BB0895F6
S113049041110CC024B381E090E002C0880F991F81
S11304A06A95E2F78095822384BB0895413051F424
S11304B024B381E090E002C0880F991F6A95E2F7A7
S11304C0822B84BB0895823431F118F4813439F0DD
S11304D008958334E1F1843409F454C0089541113A
S11304E00CC02BB381E090E002C0880F991F6A957D
S11304F0E2F7809582238BBB0895413009F05CC0FC
S11305002BB381E090E002C0880F991F6A95E2F74F
S1130510822B8BBB089541110CC028B381E090E07D
S113052002C0880F991F6A95E2F78095822388BBE1
S11305300895413009F040C028B381E090E002C042
S1130540880F991F6A95E2F7822B88BB08954111A1
S11305500CC025B381E090E002C0880F991F6A9512
S1130560E2F78095822385BB0895413029F525B3B0
S113057081E090E002C0880F991F6A95E2F7822B10
S113058085BB089541110CC022B381E090E002C004
S1130590880F991F6A95E2F78095822382BB08959C
S11305A0413051F422B381E090E002C0880F991FDA
S11305B06A95E2F7822B82BB089513BE08958F9249
S11305C09F92AF92BF92CF92DF92EF92FF92CF931E
S11305D0DF93EC01BC0180E090E00E9489046B0190
S11305E07C0124E13EEA47E852E40E94E3038823C5
S11305F09CF4A701960164E17EEA87E892E40E94F4
S11306005F0324E13EEA47E85EE30E94E8030E94B8
S11306105A04C1E0D0E035C0C334D10579F124E1F6
S11306203EEA47E852E4C701B6010E94E8030E948B
S1130630CC030E945A044B015C01EB0124E13EEA25
S113064047E85EE3C701B6010E94E8036B017C0141
S1130650B40180E090E00E9489049B01AC01C701D1
S1130660B6010E94E8039B01AC0160E070E080E801
S113067093E40E945F030E945A0403C060E0C1E057
S1130680D0E062BF83B7846083BF20E030E008C05D
S113069008B600FEFDCF88B7816088BF2F5F3F4F4B
S11306A02C173D07A8F313BEDF91CF91FF90EF9075
S11306B0DF90CF90BF90AF909F908F900895505847
S11306C0BB27AA270E9477030C942A050E941C05C5
S11306D038F00E94230520F039F49F3F19F426F4E2
S11306E00C9419050EF4E095E7FB0C94EA04E92F49
S11306F00E943B0558F3BA176207730784079507EE
S113070020F079F4A6F50C9475050EF4E0950B2E03
S1130710BA2FA02D0B01B90190010C01CA01A0014F
S11307201124FF27591B99F0593F50F4503E68F1AA
S11307301A16F040A22F232F342F4427585FF3CFEB
S1130740469537952795A795F0405395C9F77EF4BC
S11307501F16BA0B620B730B840BBAF09150A1F005
S1130760FF0FBB1F661F771F881FC2F70EC0BA0F8B
S1130770621F731F841F48F4879577956795B79513
S1130780F7959E3F08F0B0CF9395880F08F099270E
S1130790EE0F9795879508950E945D0590F09F3719
S11307A048F4911116F40C94760560E070E080E84A
S11307B09FE3089526F01B16611D711D811D0C9485
S11307C0F0040C940B050E94C60408F481E008951B
S11307D00E94FC030C942A050E94230558F00E94F1
S11307E01C0540F029F45F3F29F00C94EA045111F0
S11307F00C9476050C9419050E943B0568F3992323
S1130800B1F3552391F3951B550BBB27AA27621708
S11308107307840738F09F5F5F4F220F331F441F15
S1130820AA1FA9F335D00E2E3AF0E0E832D0915049
S11308305040E695001CCAF72BD0FE2F29D0660F36
S1130840771F881FBB1F261737074807AB07B0E879
S113085009F0BB0B802DBF01FF2793585F4F3AF07F
S11308609E3F510578F00C94EA040C9476055F3FA2
S1130870E4F3983ED4F3869577956795B795F79505
S11308809F5FC9F7880F911D9695879597F90895ED
S1130890E1E0660F771F881FBB1F62177307840789
S11308A0BA0720F0621B730B840BBA0BEE1F88F798
S11308B0E09508950E94430588F09F5798F0B92F5A
S11308C09927B751B0F0E1F0660F771F881F991F81
S11308D01AF0BA95C9F714C0B13091F00E947505A9
S11308E0B1E008950C947505672F782F8827B85FB9
S11308F039F0B93FCCF3869577956795B395D9F7D9
S11309003EF490958095709561957F4F8F4F9F4FE2
S11309100895E89409C097FB3EF4909580957095EE
S113092061957F4F8F4F9F4F9923A9F0F92F96E937
S1130930BB279395F695879577956795B795F111AC
S1130940F8CFFAF4BB0F11F460FF1BC06F5F7F4F49
S11309508F4F9F4F16C0882311F096E911C077235B
S113096021F09EE8872F762F05C0662371F096E864
S1130970862F70E060E02AF09A95660F771F881F33
S1130980DAF7880F9695879597F90895990F0008D7
S1130990550FAA0BE0E8FEEF16161706E807F9074D
S11309A0C0F012161306E407F50798F0621B730BE8
S11309B0840B950B39F40A2661F0232B242B252B69
S11309C021F408950A2609F4A140A6958FEF811D0C
S11309D0811D089597F99F6780E870E060E00895AD
S11309E0882371F4772321F09850872B762F07C042
S11309F0662311F499270DC09051862B70E060E0B6
S1130A002AF09A95660F771F881FDAF7880F969554
S1130A10879597F908959F3F31F0915020F4879579
S1130A2077956795B795880F911D9695879597F952
S1130A3008959FEF80EC089500240A941616170673
S1130A4018060906089500240A94121613061406BB
S1130A5005060895092E0394000C11F4882352F01E
S1130A60BB0F40F4BF2B11F460FF04C06F5F7F4FD6
S1130A708F4F9F4F089557FD9058440F551F59F0BD
S1130A805F3F71F04795880F97FB991F61F09F3F77
S1130A9079F087950895121613061406551FF2CFA0
S1130AA04695F1DF08C0161617061806991FF1CFF0
S1130AB0869571056105089408950E944305A0F088
S1130AC0BEE7B91788F4BB279F3860F41616B11D2A
S1130AD0672F782F8827985FF7CF86957795679546
S1130AE0B11D93959639C8F30895E894BB276627FA
S10F0AF07727CB0197F90895F894FFCF05
S9030000FC
